{
  "address": "0xc6A5860372277a7a914fc873332214a3e669e6a4",
  "abi": [
    {
      "inputs": [],
      "stateMutability": "nonpayable",
      "type": "constructor"
    },
    {
      "anonymous": false,
      "inputs": [
        {
          "indexed": true,
          "internalType": "address",
          "name": "owner",
          "type": "address"
        },
        {
          "indexed": true,
          "internalType": "address",
          "name": "approved",
          "type": "address"
        },
        {
          "indexed": true,
          "internalType": "uint256",
          "name": "tokenId",
          "type": "uint256"
        }
      ],
      "name": "Approval",
      "type": "event"
    },
    {
      "anonymous": false,
      "inputs": [
        {
          "indexed": true,
          "internalType": "address",
          "name": "owner",
          "type": "address"
        },
        {
          "indexed": true,
          "internalType": "address",
          "name": "operator",
          "type": "address"
        },
        {
          "indexed": false,
          "internalType": "bool",
          "name": "approved",
          "type": "bool"
        }
      ],
      "name": "ApprovalForAll",
      "type": "event"
    },
    {
      "anonymous": false,
      "inputs": [
        {
          "indexed": true,
          "internalType": "uint256",
          "name": "tokenId",
          "type": "uint256"
        },
        {
          "indexed": false,
          "internalType": "string",
          "name": "tokenURI",
          "type": "string"
        }
      ],
      "name": "CreatedSVGNFT",
      "type": "event"
    },
    {
      "anonymous": false,
      "inputs": [
        {
          "indexed": true,
          "internalType": "address",
          "name": "from",
          "type": "address"
        },
        {
          "indexed": true,
          "internalType": "address",
          "name": "to",
          "type": "address"
        },
        {
          "indexed": true,
          "internalType": "uint256",
          "name": "tokenId",
          "type": "uint256"
        }
      ],
      "name": "Transfer",
      "type": "event"
    },
    {
      "inputs": [
        {
          "internalType": "address",
          "name": "to",
          "type": "address"
        },
        {
          "internalType": "uint256",
          "name": "tokenId",
          "type": "uint256"
        }
      ],
      "name": "approve",
      "outputs": [],
      "stateMutability": "nonpayable",
      "type": "function"
    },
    {
      "inputs": [
        {
          "internalType": "address",
          "name": "owner",
          "type": "address"
        }
      ],
      "name": "balanceOf",
      "outputs": [
        {
          "internalType": "uint256",
          "name": "",
          "type": "uint256"
        }
      ],
      "stateMutability": "view",
      "type": "function"
    },
    {
      "inputs": [
        {
          "internalType": "string",
          "name": "svg",
          "type": "string"
        }
      ],
      "name": "create",
      "outputs": [],
      "stateMutability": "nonpayable",
      "type": "function"
    },
    {
      "inputs": [
        {
          "internalType": "string",
          "name": "imageURI",
          "type": "string"
        }
      ],
      "name": "formatTokenURI",
      "outputs": [
        {
          "internalType": "string",
          "name": "tokenURI",
          "type": "string"
        }
      ],
      "stateMutability": "pure",
      "type": "function"
    },
    {
      "inputs": [
        {
          "internalType": "uint256",
          "name": "tokenId",
          "type": "uint256"
        }
      ],
      "name": "getApproved",
      "outputs": [
        {
          "internalType": "address",
          "name": "",
          "type": "address"
        }
      ],
      "stateMutability": "view",
      "type": "function"
    },
    {
      "inputs": [
        {
          "internalType": "address",
          "name": "owner",
          "type": "address"
        },
        {
          "internalType": "address",
          "name": "operator",
          "type": "address"
        }
      ],
      "name": "isApprovedForAll",
      "outputs": [
        {
          "internalType": "bool",
          "name": "",
          "type": "bool"
        }
      ],
      "stateMutability": "view",
      "type": "function"
    },
    {
      "inputs": [],
      "name": "name",
      "outputs": [
        {
          "internalType": "string",
          "name": "",
          "type": "string"
        }
      ],
      "stateMutability": "view",
      "type": "function"
    },
    {
      "inputs": [
        {
          "internalType": "uint256",
          "name": "tokenId",
          "type": "uint256"
        }
      ],
      "name": "ownerOf",
      "outputs": [
        {
          "internalType": "address",
          "name": "",
          "type": "address"
        }
      ],
      "stateMutability": "view",
      "type": "function"
    },
    {
      "inputs": [
        {
          "internalType": "address",
          "name": "from",
          "type": "address"
        },
        {
          "internalType": "address",
          "name": "to",
          "type": "address"
        },
        {
          "internalType": "uint256",
          "name": "tokenId",
          "type": "uint256"
        }
      ],
      "name": "safeTransferFrom",
      "outputs": [],
      "stateMutability": "nonpayable",
      "type": "function"
    },
    {
      "inputs": [
        {
          "internalType": "address",
          "name": "from",
          "type": "address"
        },
        {
          "internalType": "address",
          "name": "to",
          "type": "address"
        },
        {
          "internalType": "uint256",
          "name": "tokenId",
          "type": "uint256"
        },
        {
          "internalType": "bytes",
          "name": "_data",
          "type": "bytes"
        }
      ],
      "name": "safeTransferFrom",
      "outputs": [],
      "stateMutability": "nonpayable",
      "type": "function"
    },
    {
      "inputs": [
        {
          "internalType": "address",
          "name": "operator",
          "type": "address"
        },
        {
          "internalType": "bool",
          "name": "approved",
          "type": "bool"
        }
      ],
      "name": "setApprovalForAll",
      "outputs": [],
      "stateMutability": "nonpayable",
      "type": "function"
    },
    {
      "inputs": [
        {
          "internalType": "bytes4",
          "name": "interfaceId",
          "type": "bytes4"
        }
      ],
      "name": "supportsInterface",
      "outputs": [
        {
          "internalType": "bool",
          "name": "",
          "type": "bool"
        }
      ],
      "stateMutability": "view",
      "type": "function"
    },
    {
      "inputs": [
        {
          "internalType": "string",
          "name": "svg",
          "type": "string"
        }
      ],
      "name": "svgToImageURI",
      "outputs": [
        {
          "internalType": "string",
          "name": "imageURI",
          "type": "string"
        }
      ],
      "stateMutability": "pure",
      "type": "function"
    },
    {
      "inputs": [],
      "name": "symbol",
      "outputs": [
        {
          "internalType": "string",
          "name": "",
          "type": "string"
        }
      ],
      "stateMutability": "view",
      "type": "function"
    },
    {
      "inputs": [],
      "name": "tokenId",
      "outputs": [
        {
          "internalType": "uint256",
          "name": "",
          "type": "uint256"
        }
      ],
      "stateMutability": "view",
      "type": "function"
    },
    {
      "inputs": [
        {
          "internalType": "uint256",
          "name": "tokenId",
          "type": "uint256"
        }
      ],
      "name": "tokenURI",
      "outputs": [
        {
          "internalType": "string",
          "name": "",
          "type": "string"
        }
      ],
      "stateMutability": "view",
      "type": "function"
    },
    {
      "inputs": [
        {
          "internalType": "address",
          "name": "from",
          "type": "address"
        },
        {
          "internalType": "address",
          "name": "to",
          "type": "address"
        },
        {
          "internalType": "uint256",
          "name": "tokenId",
          "type": "uint256"
        }
      ],
      "name": "transferFrom",
      "outputs": [],
      "stateMutability": "nonpayable",
      "type": "function"
    }
  ],
  "transactionHash": "0x202a0890318fc76313f4a1bc782f99ab80a8e2d201b0bfc524723af08755a6ca",
  "args": [],
  "numDeployments": 1,
  "solcInputHash": "aec04b3a33a470bfe29c3c7b00ab1e82",
  "bytecode": "0x60806040523480156200001157600080fd5b506040518060400160405280600781526020017f4e465420535647000000000000000000000000000000000000000000000000008152506040518060400160405280600481526020017f734e465400000000000000000000000000000000000000000000000000000000815250816000908051906020019062000096929190620000c0565b508060019080519060200190620000af929190620000c0565b5050506000600781905550620001d5565b828054620000ce9062000170565b90600052602060002090601f016020900481019282620000f257600085556200013e565b82601f106200010d57805160ff19168380011785556200013e565b828001600101855582156200013e579182015b828111156200013d57825182559160200191906001019062000120565b5b5090506200014d919062000151565b5090565b5b808211156200016c57600081600090555060010162000152565b5090565b600060028204905060018216806200018957607f821691505b60208210811415620001a0576200019f620001a6565b5b50919050565b7f4e487b7100000000000000000000000000000000000000000000000000000000600052602260045260246000fd5b61301480620001e56000396000f3fe608060405234801561001057600080fd5b506004361061010b5760003560e01c80636352211e116100a2578063a22cb46511610071578063a22cb465146102de578063b6a46b3b146102fa578063b88d4fde14610316578063c87b56dd14610332578063e985e9c5146103625761010b565b80636352211e1461023057806370a082311461026057806371aee1931461029057806395d89b41146102c05761010b565b806317d70f7c116100de57806317d70f7c146101aa57806323b872dd146101c857806330d871c6146101e457806342842e0e146102145761010b565b806301ffc9a71461011057806306fdde0314610140578063081812fc1461015e578063095ea7b31461018e575b600080fd5b61012a60048036038101906101259190611fbd565b610392565b60405161013791906128d2565b60405180910390f35b610148610474565b60405161015591906128ed565b60405180910390f35b61017860048036038101906101739190612050565b610506565b604051610185919061286b565b60405180910390f35b6101a860048036038101906101a39190611f81565b61058b565b005b6101b26106a3565b6040516101bf9190612b0f565b60405180910390f35b6101e260048036038101906101dd9190611e7b565b6106a9565b005b6101fe60048036038101906101f9919061200f565b610709565b60405161020b91906128ed565b60405180910390f35b61022e60048036038101906102299190611e7b565b61079c565b005b61024a60048036038101906102459190612050565b6107bc565b604051610257919061286b565b60405180910390f35b61027a60048036038101906102759190611e16565b61086e565b6040516102879190612b0f565b60405180910390f35b6102aa60048036038101906102a5919061200f565b610926565b6040516102b791906128ed565b60405180910390f35b6102c86109b3565b6040516102d591906128ed565b60405180910390f35b6102f860048036038101906102f39190611f45565b610a45565b005b610314600480360381019061030f919061200f565b610a5b565b005b610330600480360381019061032b9190611eca565b610ae4565b005b61034c60048036038101906103479190612050565b610b46565b60405161035991906128ed565b60405180910390f35b61037c60048036038101906103779190611e3f565b610c98565b60405161038991906128d2565b60405180910390f35b60007f80ac58cd000000000000000000000000000000000000000000000000000000007bffffffffffffffffffffffffffffffffffffffffffffffffffffffff1916827bffffffffffffffffffffffffffffffffffffffffffffffffffffffff1916148061045d57507f5b5e139f000000000000000000000000000000000000000000000000000000007bffffffffffffffffffffffffffffffffffffffffffffffffffffffff1916827bffffffffffffffffffffffffffffffffffffffffffffffffffffffff1916145b8061046d575061046c82610d2c565b5b9050919050565b60606000805461048390612dc9565b80601f01602080910402602001604051908101604052809291908181526020018280546104af90612dc9565b80156104fc5780601f106104d1576101008083540402835291602001916104fc565b820191906000526020600020905b8154815290600101906020018083116104df57829003601f168201915b5050505050905090565b600061051182610d96565b610550576040517f08c379a000000000000000000000000000000000000000000000000000000000815260040161054790612a6f565b60405180910390fd5b6004600083815260200190815260200160002060009054906101000a900473ffffffffffffffffffffffffffffffffffffffff169050919050565b6000610596826107bc565b90508073ffffffffffffffffffffffffffffffffffffffff168373ffffffffffffffffffffffffffffffffffffffff161415610607576040517f08c379a00000000000000000000000000000000000000000000000000000000081526004016105fe90612acf565b60405180910390fd5b8073ffffffffffffffffffffffffffffffffffffffff16610626610e02565b73ffffffffffffffffffffffffffffffffffffffff16148061065557506106548161064f610e02565b610c98565b5b610694576040517f08c379a000000000000000000000000000000000000000000000000000000000815260040161068b906129af565b60405180910390fd5b61069e8383610e0a565b505050565b60075481565b6106ba6106b4610e02565b82610ec3565b6106f9576040517f08c379a00000000000000000000000000000000000000000000000000000000081526004016106f090612aef565b60405180910390fd5b610704838383610fa1565b505050565b606060006040518060400160405280601a81526020017f646174613a696d6167652f7376672b786d6c3b6261736536342c0000000000008152509050600061076f8460405160200161075b9190612803565b6040516020818303038152906040526111fd565b9050818160405160200161078492919061281a565b60405160208183030381529060405292505050919050565b6107b783838360405180602001604052806000815250610ae4565b505050565b6000806002600084815260200190815260200160002060009054906101000a900473ffffffffffffffffffffffffffffffffffffffff169050600073ffffffffffffffffffffffffffffffffffffffff168173ffffffffffffffffffffffffffffffffffffffff161415610865576040517f08c379a000000000000000000000000000000000000000000000000000000000815260040161085c906129ef565b60405180910390fd5b80915050919050565b60008073ffffffffffffffffffffffffffffffffffffffff168273ffffffffffffffffffffffffffffffffffffffff1614156108df576040517f08c379a00000000000000000000000000000000000000000000000000000000081526004016108d6906129cf565b60405180910390fd5b600360008373ffffffffffffffffffffffffffffffffffffffff1673ffffffffffffffffffffffffffffffffffffffff168152602001908152602001600020549050919050565b606060006040518060400160405280601d81526020017f646174613a6170706c69636174696f6e2f6a736f6e3b6261736536342c00000081525090508061098b84604051602001610977919061283e565b6040516020818303038152906040526111fd565b60405160200161099c92919061281a565b604051602081830303815290604052915050919050565b6060600180546109c290612dc9565b80601f01602080910402602001604051908101604052809291908181526020018280546109ee90612dc9565b8015610a3b5780601f10610a1057610100808354040283529160200191610a3b565b820191906000526020600020905b815481529060010190602001808311610a1e57829003601f168201915b5050505050905090565b610a57610a50610e02565b838361139c565b5050565b610a6733600754611509565b6000610a7282610709565b90506000610a7f82610926565b9050610a8d60075482611527565b6007547ff5acc616aa8ecd00e5d76674d7812f9c3c3571d662c9fba4499deefa6d0be12d82604051610abf91906128ed565b60405180910390a260076000815480929190610ada90612dfb565b9190505550505050565b610af5610aef610e02565b83610ec3565b610b34576040517f08c379a0000000000000000000000000000000000000000000000000000000008152600401610b2b90612aef565b60405180910390fd5b610b408484848461159b565b50505050565b6060610b5182610d96565b610b90576040517f08c379a0000000000000000000000000000000000000000000000000000000008152600401610b8790612a4f565b60405180910390fd5b6000600660008481526020019081526020016000208054610bb090612dc9565b80601f0160208091040260200160405190810160405280929190818152602001828054610bdc90612dc9565b8015610c295780601f10610bfe57610100808354040283529160200191610c29565b820191906000526020600020905b815481529060010190602001808311610c0c57829003601f168201915b505050505090506000610c3a6115f7565b9050600081511415610c50578192505050610c93565b600082511115610c85578082604051602001610c6d92919061281a565b60405160208183030381529060405292505050610c93565b610c8e8461160e565b925050505b919050565b6000600560008473ffffffffffffffffffffffffffffffffffffffff1673ffffffffffffffffffffffffffffffffffffffff16815260200190815260200160002060008373ffffffffffffffffffffffffffffffffffffffff1673ffffffffffffffffffffffffffffffffffffffff16815260200190815260200160002060009054906101000a900460ff16905092915050565b60007f01ffc9a7000000000000000000000000000000000000000000000000000000007bffffffffffffffffffffffffffffffffffffffffffffffffffffffff1916827bffffffffffffffffffffffffffffffffffffffffffffffffffffffff1916149050919050565b60008073ffffffffffffffffffffffffffffffffffffffff166002600084815260200190815260200160002060009054906101000a900473ffffffffffffffffffffffffffffffffffffffff1673ffffffffffffffffffffffffffffffffffffffff1614159050919050565b600033905090565b816004600083815260200190815260200160002060006101000a81548173ffffffffffffffffffffffffffffffffffffffff021916908373ffffffffffffffffffffffffffffffffffffffff160217905550808273ffffffffffffffffffffffffffffffffffffffff16610e7d836107bc565b73ffffffffffffffffffffffffffffffffffffffff167f8c5be1e5ebec7d5bd14f71427d1e84f3dd0314c0f7b2291e5b200ac8c7c3b92560405160405180910390a45050565b6000610ece82610d96565b610f0d576040517f08c379a0000000000000000000000000000000000000000000000000000000008152600401610f049061298f565b60405180910390fd5b6000610f18836107bc565b90508073ffffffffffffffffffffffffffffffffffffffff168473ffffffffffffffffffffffffffffffffffffffff161480610f8757508373ffffffffffffffffffffffffffffffffffffffff16610f6f84610506565b73ffffffffffffffffffffffffffffffffffffffff16145b80610f985750610f978185610c98565b5b91505092915050565b8273ffffffffffffffffffffffffffffffffffffffff16610fc1826107bc565b73ffffffffffffffffffffffffffffffffffffffff1614611017576040517f08c379a000000000000000000000000000000000000000000000000000000000815260040161100e90612a8f565b60405180910390fd5b600073ffffffffffffffffffffffffffffffffffffffff168273ffffffffffffffffffffffffffffffffffffffff161415611087576040517f08c379a000000000000000000000000000000000000000000000000000000000815260040161107e9061294f565b60405180910390fd5b6110928383836116b5565b61109d600082610e0a565b6001600360008573ffffffffffffffffffffffffffffffffffffffff1673ffffffffffffffffffffffffffffffffffffffff16815260200190815260200160002060008282546110ed9190612cdf565b925050819055506001600360008473ffffffffffffffffffffffffffffffffffffffff1673ffffffffffffffffffffffffffffffffffffffff16815260200190815260200160002060008282546111449190612bfe565b92505081905550816002600083815260200190815260200160002060006101000a81548173ffffffffffffffffffffffffffffffffffffffff021916908373ffffffffffffffffffffffffffffffffffffffff160217905550808273ffffffffffffffffffffffffffffffffffffffff168473ffffffffffffffffffffffffffffffffffffffff167fddf252ad1be2c89b69c2b068fc378daa952ba7f163c4a11628f55a4df523b3ef60405160405180910390a4505050565b606060008251141561122057604051806020016040528060008152509050611397565b6000604051806060016040528060408152602001612f9f604091399050600060036002855161124f9190612bfe565b6112599190612c54565b60046112659190612c85565b905060006020826112769190612bfe565b67ffffffffffffffff8111156112b5577f4e487b7100000000000000000000000000000000000000000000000000000000600052604160045260246000fd5b6040519080825280601f01601f1916602001820160405280156112e75781602001600182028036833780820191505090505b509050818152600183018586518101602084015b81831015611356576003830192508251603f8160121c168501518253600182019150603f81600c1c168501518253600182019150603f8160061c168501518253600182019150603f81168501518253600182019150506112fb565b60038951066001811461137057600281146113805761138b565b613d3d60f01b600283035261138b565b603d60f81b60018303525b50505050508093505050505b919050565b8173ffffffffffffffffffffffffffffffffffffffff168373ffffffffffffffffffffffffffffffffffffffff16141561140b576040517f08c379a00000000000000000000000000000000000000000000000000000000081526004016114029061296f565b60405180910390fd5b80600560008573ffffffffffffffffffffffffffffffffffffffff1673ffffffffffffffffffffffffffffffffffffffff16815260200190815260200160002060008473ffffffffffffffffffffffffffffffffffffffff1673ffffffffffffffffffffffffffffffffffffffff16815260200190815260200160002060006101000a81548160ff0219169083151502179055508173ffffffffffffffffffffffffffffffffffffffff168373ffffffffffffffffffffffffffffffffffffffff167f17307eab39ab6107e8899845ad3d59bd9653f200f220920489ca2b5937696c31836040516114fc91906128d2565b60405180910390a3505050565b6115238282604051806020016040528060008152506116ba565b5050565b61153082610d96565b61156f576040517f08c379a000000000000000000000000000000000000000000000000000000000815260040161156690612a0f565b60405180910390fd5b80600660008481526020019081526020016000209080519060200190611596929190611c3a565b505050565b6115a6848484610fa1565b6115b284848484611715565b6115f1576040517f08c379a00000000000000000000000000000000000000000000000000000000081526004016115e89061290f565b60405180910390fd5b50505050565b606060405180602001604052806000815250905090565b606061161982610d96565b611658576040517f08c379a000000000000000000000000000000000000000000000000000000000815260040161164f90612aaf565b60405180910390fd5b60006116626115f7565b9050600081511161168257604051806020016040528060008152506116ad565b8061168c846118ac565b60405160200161169d92919061281a565b6040516020818303038152906040525b915050919050565b505050565b6116c48383611a59565b6116d16000848484611715565b611710576040517f08c379a00000000000000000000000000000000000000000000000000000000081526004016117079061290f565b60405180910390fd5b505050565b60006117368473ffffffffffffffffffffffffffffffffffffffff16611c27565b1561189f578373ffffffffffffffffffffffffffffffffffffffff1663150b7a0261175f610e02565b8786866040518563ffffffff1660e01b81526004016117819493929190612886565b602060405180830381600087803b15801561179b57600080fd5b505af19250505080156117cc57506040513d601f19601f820116820180604052508101906117c99190611fe6565b60015b61184f573d80600081146117fc576040519150601f19603f3d011682016040523d82523d6000602084013e611801565b606091505b50600081511415611847576040517f08c379a000000000000000000000000000000000000000000000000000000000815260040161183e9061290f565b60405180910390fd5b805181602001fd5b63150b7a0260e01b7bffffffffffffffffffffffffffffffffffffffffffffffffffffffff1916817bffffffffffffffffffffffffffffffffffffffffffffffffffffffff1916149150506118a4565b600190505b949350505050565b606060008214156118f4576040518060400160405280600181526020017f30000000000000000000000000000000000000000000000000000000000000008152509050611a54565b600082905060005b6000821461192657808061190f90612dfb565b915050600a8261191f9190612c54565b91506118fc565b60008167ffffffffffffffff811115611968577f4e487b7100000000000000000000000000000000000000000000000000000000600052604160045260246000fd5b6040519080825280601f01601f19166020018201604052801561199a5781602001600182028036833780820191505090505b5090505b60008514611a4d576001826119b39190612cdf565b9150600a856119c29190612e44565b60306119ce9190612bfe565b60f81b818381518110611a0a577f4e487b7100000000000000000000000000000000000000000000000000000000600052603260045260246000fd5b60200101907effffffffffffffffffffffffffffffffffffffffffffffffffffffffffffff1916908160001a905350600a85611a469190612c54565b945061199e565b8093505050505b919050565b600073ffffffffffffffffffffffffffffffffffffffff168273ffffffffffffffffffffffffffffffffffffffff161415611ac9576040517f08c379a0000000000000000000000000000000000000000000000000000000008152600401611ac090612a2f565b60405180910390fd5b611ad281610d96565b15611b12576040517f08c379a0000000000000000000000000000000000000000000000000000000008152600401611b099061292f565b60405180910390fd5b611b1e600083836116b5565b6001600360008473ffffffffffffffffffffffffffffffffffffffff1673ffffffffffffffffffffffffffffffffffffffff1681526020019081526020016000206000828254611b6e9190612bfe565b92505081905550816002600083815260200190815260200160002060006101000a81548173ffffffffffffffffffffffffffffffffffffffff021916908373ffffffffffffffffffffffffffffffffffffffff160217905550808273ffffffffffffffffffffffffffffffffffffffff16600073ffffffffffffffffffffffffffffffffffffffff167fddf252ad1be2c89b69c2b068fc378daa952ba7f163c4a11628f55a4df523b3ef60405160405180910390a45050565b600080823b905060008111915050919050565b828054611c4690612dc9565b90600052602060002090601f016020900481019282611c685760008555611caf565b82601f10611c8157805160ff1916838001178555611caf565b82800160010185558215611caf579182015b82811115611cae578251825591602001919060010190611c93565b5b509050611cbc9190611cc0565b5090565b5b80821115611cd9576000816000905550600101611cc1565b5090565b6000611cf0611ceb84612b5b565b612b2a565b905082815260208101848484011115611d0857600080fd5b611d13848285612d87565b509392505050565b6000611d2e611d2984612b8b565b612b2a565b905082815260208101848484011115611d4657600080fd5b611d51848285612d87565b509392505050565b600081359050611d6881612f42565b92915050565b600081359050611d7d81612f59565b92915050565b600081359050611d9281612f70565b92915050565b600081519050611da781612f70565b92915050565b600082601f830112611dbe57600080fd5b8135611dce848260208601611cdd565b91505092915050565b600082601f830112611de857600080fd5b8135611df8848260208601611d1b565b91505092915050565b600081359050611e1081612f87565b92915050565b600060208284031215611e2857600080fd5b6000611e3684828501611d59565b91505092915050565b60008060408385031215611e5257600080fd5b6000611e6085828601611d59565b9250506020611e7185828601611d59565b9150509250929050565b600080600060608486031215611e9057600080fd5b6000611e9e86828701611d59565b9350506020611eaf86828701611d59565b9250506040611ec086828701611e01565b9150509250925092565b60008060008060808587031215611ee057600080fd5b6000611eee87828801611d59565b9450506020611eff87828801611d59565b9350506040611f1087828801611e01565b925050606085013567ffffffffffffffff811115611f2d57600080fd5b611f3987828801611dad565b91505092959194509250565b60008060408385031215611f5857600080fd5b6000611f6685828601611d59565b9250506020611f7785828601611d6e565b9150509250929050565b60008060408385031215611f9457600080fd5b6000611fa285828601611d59565b9250506020611fb385828601611e01565b9150509250929050565b600060208284031215611fcf57600080fd5b6000611fdd84828501611d83565b91505092915050565b600060208284031215611ff857600080fd5b600061200684828501611d98565b91505092915050565b60006020828403121561202157600080fd5b600082013567ffffffffffffffff81111561203b57600080fd5b61204784828501611dd7565b91505092915050565b60006020828403121561206257600080fd5b600061207084828501611e01565b91505092915050565b61208281612d13565b82525050565b61209181612d25565b82525050565b60006120a282612bbb565b6120ac8185612bd1565b93506120bc818560208601612d96565b6120c581612f31565b840191505092915050565b60006120db82612bc6565b6120e58185612be2565b93506120f5818560208601612d96565b6120fe81612f31565b840191505092915050565b600061211482612bc6565b61211e8185612bf3565b935061212e818560208601612d96565b80840191505092915050565b6000612147603283612be2565b91507f4552433732313a207472616e7366657220746f206e6f6e20455243373231526560008301527f63656976657220696d706c656d656e74657200000000000000000000000000006020830152604082019050919050565b60006121ad601c83612be2565b91507f4552433732313a20746f6b656e20616c7265616479206d696e746564000000006000830152602082019050919050565b60006121ed602483612be2565b91507f4552433732313a207472616e7366657220746f20746865207a65726f2061646460008301527f72657373000000000000000000000000000000000000000000000000000000006020830152604082019050919050565b6000612253601983612be2565b91507f4552433732313a20617070726f766520746f2063616c6c6572000000000000006000830152602082019050919050565b6000612293602c83612be2565b91507f4552433732313a206f70657261746f7220717565727920666f72206e6f6e657860008301527f697374656e7420746f6b656e00000000000000000000000000000000000000006020830152604082019050919050565b60006122f9603883612be2565b91507f4552433732313a20617070726f76652063616c6c6572206973206e6f74206f7760008301527f6e6572206e6f7220617070726f76656420666f7220616c6c00000000000000006020830152604082019050919050565b600061235f602a83612be2565b91507f4552433732313a2062616c616e636520717565727920666f7220746865207a6560008301527f726f2061646472657373000000000000000000000000000000000000000000006020830152604082019050919050565b60006123c5602983612be2565b91507f4552433732313a206f776e657220717565727920666f72206e6f6e657869737460008301527f656e7420746f6b656e00000000000000000000000000000000000000000000006020830152604082019050919050565b600061242b602e83612be2565b91507f45524337323155524953746f726167653a2055524920736574206f66206e6f6e60008301527f6578697374656e7420746f6b656e0000000000000000000000000000000000006020830152604082019050919050565b6000612491600283612bf3565b91507f227d0000000000000000000000000000000000000000000000000000000000006000830152600282019050919050565b60006124d1602083612be2565b91507f4552433732313a206d696e7420746f20746865207a65726f20616464726573736000830152602082019050919050565b6000612511603183612be2565b91507f45524337323155524953746f726167653a2055524920717565727920666f722060008301527f6e6f6e6578697374656e7420746f6b656e0000000000000000000000000000006020830152604082019050919050565b6000612577602c83612be2565b91507f4552433732313a20617070726f76656420717565727920666f72206e6f6e657860008301527f697374656e7420746f6b656e00000000000000000000000000000000000000006020830152604082019050919050565b60006125dd602983612be2565b91507f4552433732313a207472616e73666572206f6620746f6b656e2074686174206960008301527f73206e6f74206f776e00000000000000000000000000000000000000000000006020830152604082019050919050565b6000612643602f83612be2565b91507f4552433732314d657461646174613a2055524920717565727920666f72206e6f60008301527f6e6578697374656e7420746f6b656e00000000000000000000000000000000006020830152604082019050919050565b60006126a9602183612be2565b91507f4552433732313a20617070726f76616c20746f2063757272656e74206f776e6560008301527f72000000000000000000000000000000000000000000000000000000000000006020830152604082019050919050565b600061270f603183612be2565b91507f4552433732313a207472616e736665722063616c6c6572206973206e6f74206f60008301527f776e6572206e6f7220617070726f7665640000000000000000000000000000006020830152604082019050919050565b6000612775605083612bf3565b91507f7b226e616d65223a2022535647204e4654222c226465736372697074696f6e2260008301527f3a20224e4654206261736564206f6e20535647222c226174747269627574657360208301527f223a2022222c22696d616765223a2022000000000000000000000000000000006040830152605082019050919050565b6127fd81612d7d565b82525050565b600061280f8284612109565b915081905092915050565b60006128268285612109565b91506128328284612109565b91508190509392505050565b600061284982612768565b91506128558284612109565b915061286082612484565b915081905092915050565b60006020820190506128806000830184612079565b92915050565b600060808201905061289b6000830187612079565b6128a86020830186612079565b6128b560408301856127f4565b81810360608301526128c78184612097565b905095945050505050565b60006020820190506128e76000830184612088565b92915050565b6000602082019050818103600083015261290781846120d0565b905092915050565b600060208201905081810360008301526129288161213a565b9050919050565b60006020820190508181036000830152612948816121a0565b9050919050565b60006020820190508181036000830152612968816121e0565b9050919050565b6000602082019050818103600083015261298881612246565b9050919050565b600060208201905081810360008301526129a881612286565b9050919050565b600060208201905081810360008301526129c8816122ec565b9050919050565b600060208201905081810360008301526129e881612352565b9050919050565b60006020820190508181036000830152612a08816123b8565b9050919050565b60006020820190508181036000830152612a288161241e565b9050919050565b60006020820190508181036000830152612a48816124c4565b9050919050565b60006020820190508181036000830152612a6881612504565b9050919050565b60006020820190508181036000830152612a888161256a565b9050919050565b60006020820190508181036000830152612aa8816125d0565b9050919050565b60006020820190508181036000830152612ac881612636565b9050919050565b60006020820190508181036000830152612ae88161269c565b9050919050565b60006020820190508181036000830152612b0881612702565b9050919050565b6000602082019050612b2460008301846127f4565b92915050565b6000604051905081810181811067ffffffffffffffff82111715612b5157612b50612f02565b5b8060405250919050565b600067ffffffffffffffff821115612b7657612b75612f02565b5b601f19601f8301169050602081019050919050565b600067ffffffffffffffff821115612ba657612ba5612f02565b5b601f19601f8301169050602081019050919050565b600081519050919050565b600081519050919050565b600082825260208201905092915050565b600082825260208201905092915050565b600081905092915050565b6000612c0982612d7d565b9150612c1483612d7d565b9250827fffffffffffffffffffffffffffffffffffffffffffffffffffffffffffffffff03821115612c4957612c48612e75565b5b828201905092915050565b6000612c5f82612d7d565b9150612c6a83612d7d565b925082612c7a57612c79612ea4565b5b828204905092915050565b6000612c9082612d7d565b9150612c9b83612d7d565b9250817fffffffffffffffffffffffffffffffffffffffffffffffffffffffffffffffff0483118215151615612cd457612cd3612e75565b5b828202905092915050565b6000612cea82612d7d565b9150612cf583612d7d565b925082821015612d0857612d07612e75565b5b828203905092915050565b6000612d1e82612d5d565b9050919050565b60008115159050919050565b60007fffffffff0000000000000000000000000000000000000000000000000000000082169050919050565b600073ffffffffffffffffffffffffffffffffffffffff82169050919050565b6000819050919050565b82818337600083830152505050565b60005b83811015612db4578082015181840152602081019050612d99565b83811115612dc3576000848401525b50505050565b60006002820490506001821680612de157607f821691505b60208210811415612df557612df4612ed3565b5b50919050565b6000612e0682612d7d565b91507fffffffffffffffffffffffffffffffffffffffffffffffffffffffffffffffff821415612e3957612e38612e75565b5b600182019050919050565b6000612e4f82612d7d565b9150612e5a83612d7d565b925082612e6a57612e69612ea4565b5b828206905092915050565b7f4e487b7100000000000000000000000000000000000000000000000000000000600052601160045260246000fd5b7f4e487b7100000000000000000000000000000000000000000000000000000000600052601260045260246000fd5b7f4e487b7100000000000000000000000000000000000000000000000000000000600052602260045260246000fd5b7f4e487b7100000000000000000000000000000000000000000000000000000000600052604160045260246000fd5b6000601f19601f8301169050919050565b612f4b81612d13565b8114612f5657600080fd5b50565b612f6281612d25565b8114612f6d57600080fd5b50565b612f7981612d31565b8114612f8457600080fd5b50565b612f9081612d7d565b8114612f9b57600080fd5b5056fe4142434445464748494a4b4c4d4e4f505152535455565758595a6162636465666768696a6b6c6d6e6f707172737475767778797a303132333435363738392b2fa26469706673582212205f7fd334d7cfba4213e648e9f2a6f37324e1ff909f95bc1a54e32eed33e7959d64736f6c63430008000033",
  "devdoc": {
    "kind": "dev",
    "methods": {
      "approve(address,uint256)": {
        "details": "See {IERC721-approve}."
      },
      "balanceOf(address)": {
        "details": "See {IERC721-balanceOf}."
      },
      "getApproved(uint256)": {
        "details": "See {IERC721-getApproved}."
      },
      "isApprovedForAll(address,address)": {
        "details": "See {IERC721-isApprovedForAll}."
      },
      "name()": {
        "details": "See {IERC721Metadata-name}."
      },
      "ownerOf(uint256)": {
        "details": "See {IERC721-ownerOf}."
      },
      "safeTransferFrom(address,address,uint256)": {
        "details": "See {IERC721-safeTransferFrom}."
      },
      "safeTransferFrom(address,address,uint256,bytes)": {
        "details": "See {IERC721-safeTransferFrom}."
      },
      "setApprovalForAll(address,bool)": {
        "details": "See {IERC721-setApprovalForAll}."
      },
      "supportsInterface(bytes4)": {
        "details": "See {IERC165-supportsInterface}."
      },
      "symbol()": {
        "details": "See {IERC721Metadata-symbol}."
      },
      "tokenURI(uint256)": {
        "details": "See {IERC721Metadata-tokenURI}."
      },
      "transferFrom(address,address,uint256)": {
        "details": "See {IERC721-transferFrom}."
      }
    },
    "version": 1
  },
  "userdoc": {
    "kind": "user",
    "methods": {},
    "version": 1
  },
  "storageLayout": {
    "storage": [
      {
        "astId": 25,
        "contract": "contracts/SVGNFT.sol:SVGNFT",
        "label": "_name",
        "offset": 0,
        "slot": "0",
        "type": "t_string_storage"
      },
      {
        "astId": 27,
        "contract": "contracts/SVGNFT.sol:SVGNFT",
        "label": "_symbol",
        "offset": 0,
        "slot": "1",
        "type": "t_string_storage"
      },
      {
        "astId": 31,
        "contract": "contracts/SVGNFT.sol:SVGNFT",
        "label": "_owners",
        "offset": 0,
        "slot": "2",
        "type": "t_mapping(t_uint256,t_address)"
      },
      {
        "astId": 35,
        "contract": "contracts/SVGNFT.sol:SVGNFT",
        "label": "_balances",
        "offset": 0,
        "slot": "3",
        "type": "t_mapping(t_address,t_uint256)"
      },
      {
        "astId": 39,
        "contract": "contracts/SVGNFT.sol:SVGNFT",
        "label": "_tokenApprovals",
        "offset": 0,
        "slot": "4",
        "type": "t_mapping(t_uint256,t_address)"
      },
      {
        "astId": 45,
        "contract": "contracts/SVGNFT.sol:SVGNFT",
        "label": "_operatorApprovals",
        "offset": 0,
        "slot": "5",
        "type": "t_mapping(t_address,t_mapping(t_address,t_bool))"
      },
      {
        "astId": 977,
        "contract": "contracts/SVGNFT.sol:SVGNFT",
        "label": "_tokenURIs",
        "offset": 0,
        "slot": "6",
        "type": "t_mapping(t_uint256,t_string_storage)"
      },
      {
        "astId": 1806,
        "contract": "contracts/SVGNFT.sol:SVGNFT",
        "label": "tokenId",
        "offset": 0,
        "slot": "7",
        "type": "t_uint256"
      }
    ],
    "types": {
      "t_address": {
        "encoding": "inplace",
        "label": "address",
        "numberOfBytes": "20"
      },
      "t_bool": {
        "encoding": "inplace",
        "label": "bool",
        "numberOfBytes": "1"
      },
      "t_mapping(t_address,t_bool)": {
        "encoding": "mapping",
        "key": "t_address",
        "label": "mapping(address => bool)",
        "numberOfBytes": "32",
        "value": "t_bool"
      },
      "t_mapping(t_address,t_mapping(t_address,t_bool))": {
        "encoding": "mapping",
        "key": "t_address",
        "label": "mapping(address => mapping(address => bool))",
        "numberOfBytes": "32",
        "value": "t_mapping(t_address,t_bool)"
      },
      "t_mapping(t_address,t_uint256)": {
        "encoding": "mapping",
        "key": "t_address",
        "label": "mapping(address => uint256)",
        "numberOfBytes": "32",
        "value": "t_uint256"
      },
      "t_mapping(t_uint256,t_address)": {
        "encoding": "mapping",
        "key": "t_uint256",
        "label": "mapping(uint256 => address)",
        "numberOfBytes": "32",
        "value": "t_address"
      },
      "t_mapping(t_uint256,t_string_storage)": {
        "encoding": "mapping",
        "key": "t_uint256",
        "label": "mapping(uint256 => string)",
        "numberOfBytes": "32",
        "value": "t_string_storage"
      },
      "t_string_storage": {
        "encoding": "bytes",
        "label": "string",
        "numberOfBytes": "32"
      },
      "t_uint256": {
        "encoding": "inplace",
        "label": "uint256",
        "numberOfBytes": "32"
      }
    }
  }
}